{
	"contracts/calculator.sol": {
		"Hello": {
			"abi": [
				{
					"inputs": [
						{
							"internalType": "int256",
							"name": "n",
							"type": "int256"
						}
					],
					"name": "add",
					"outputs": [],
					"stateMutability": "nonpayable",
					"type": "function"
				},
				{
					"inputs": [
						{
							"internalType": "int256",
							"name": "n",
							"type": "int256"
						}
					],
					"name": "cos",
					"outputs": [],
					"stateMutability": "nonpayable",
					"type": "function"
				},
				{
					"inputs": [
						{
							"internalType": "int256",
							"name": "n",
							"type": "int256"
						}
					],
					"name": "divide",
					"outputs": [],
					"stateMutability": "nonpayable",
					"type": "function"
				},
				{
					"inputs": [],
					"name": "get",
					"outputs": [
						{
							"internalType": "int256",
							"name": "",
							"type": "int256"
						}
					],
					"stateMutability": "view",
					"type": "function"
				},
				{
					"inputs": [
						{
							"internalType": "int256",
							"name": "n",
							"type": "int256"
						}
					],
					"name": "multiply",
					"outputs": [],
					"stateMutability": "nonpayable",
					"type": "function"
				},
				{
					"inputs": [],
					"name": "result",
					"outputs": [
						{
							"internalType": "int256",
							"name": "",
							"type": "int256"
						}
					],
					"stateMutability": "view",
					"type": "function"
				},
				{
					"inputs": [
						{
							"internalType": "int256",
							"name": "n",
							"type": "int256"
						}
					],
					"name": "sin",
					"outputs": [],
					"stateMutability": "nonpayable",
					"type": "function"
				},
				{
					"inputs": [
						{
							"internalType": "int256",
							"name": "n",
							"type": "int256"
						}
					],
					"name": "substract",
					"outputs": [],
					"stateMutability": "nonpayable",
					"type": "function"
				}
			],
			"devdoc": {
				"kind": "dev",
				"methods": {},
				"version": 1
			},
			"evm": {
				"assembly": "    /* \"contracts/calculator.sol\":58:1431  contract Hello {... */\n  mstore(0x40, 0x80)\n    /* \"contracts/calculator.sol\":107:108  0 */\n  0x00\n    /* \"contracts/calculator.sol\":84:108  int256 public result = 0 */\n  dup1\n  sstore\n    /* \"contracts/calculator.sol\":126:129  1e5 */\n  0x0186a0\n    /* \"contracts/calculator.sol\":114:129  uint256 N = 1e5 */\n  0x01\n  sstore\n    /* \"contracts/calculator.sol\":58:1431  contract Hello {... */\n  callvalue\n  dup1\n  iszero\n  tag_1\n  jumpi\n  0x00\n  dup1\n  revert\ntag_1:\n  pop\n  dataSize(sub_0)\n  dup1\n  dataOffset(sub_0)\n  0x00\n  codecopy\n  0x00\n  return\nstop\n\nsub_0: assembly {\n        /* \"contracts/calculator.sol\":58:1431  contract Hello {... */\n      mstore(0x40, 0x80)\n      callvalue\n      dup1\n      iszero\n      tag_1\n      jumpi\n      0x00\n      dup1\n      revert\n    tag_1:\n      pop\n      jumpi(tag_2, lt(calldatasize, 0x04))\n      shr(0xe0, calldataload(0x00))\n      dup1\n      0x6d4ce63c\n      gt\n      tag_11\n      jumpi\n      dup1\n      0x6d4ce63c\n      eq\n      tag_7\n      jumpi\n      dup1\n      0x87db03b7\n      eq\n      tag_8\n      jumpi\n      dup1\n      0x9b666d7a\n      eq\n      tag_9\n      jumpi\n      dup1\n      0xaaa044dc\n      eq\n      tag_10\n      jumpi\n      jump(tag_2)\n    tag_11:\n      dup1\n      0x16173f39\n      eq\n      tag_3\n      jumpi\n      dup1\n      0x1df4f144\n      eq\n      tag_4\n      jumpi\n      dup1\n      0x4dd9fb71\n      eq\n      tag_5\n      jumpi\n      dup1\n      0x65372147\n      eq\n      tag_6\n      jumpi\n    tag_2:\n      0x00\n      dup1\n      revert\n        /* \"contracts/calculator.sol\":523:795  function sin(int256 n) public {... */\n    tag_3:\n      tag_12\n      0x04\n      dup1\n      calldatasize\n      sub\n      dup2\n      add\n      swap1\n      tag_13\n      swap2\n      swap1\n      tag_14\n      jump\t// in\n    tag_13:\n      tag_15\n      jump\t// in\n    tag_12:\n      stop\n        /* \"contracts/calculator.sol\":1216:1279  function multiply(int256 n) public {... */\n    tag_4:\n      tag_16\n      0x04\n      dup1\n      calldatasize\n      sub\n      dup2\n      add\n      swap1\n      tag_17\n      swap2\n      swap1\n      tag_14\n      jump\t// in\n    tag_17:\n      tag_18\n      jump\t// in\n    tag_16:\n      stop\n        /* \"contracts/calculator.sol\":1146:1211  function substract(int256 n) public  {... */\n    tag_5:\n      tag_19\n      0x04\n      dup1\n      calldatasize\n      sub\n      dup2\n      add\n      swap1\n      tag_20\n      swap2\n      swap1\n      tag_14\n      jump\t// in\n    tag_20:\n      tag_21\n      jump\t// in\n    tag_19:\n      stop\n        /* \"contracts/calculator.sol\":84:108  int256 public result = 0 */\n    tag_6:\n      tag_22\n      tag_23\n      jump\t// in\n    tag_22:\n      mload(0x40)\n      tag_24\n      swap2\n      swap1\n      tag_25\n      jump\t// in\n    tag_24:\n      mload(0x40)\n      dup1\n      swap2\n      sub\n      swap1\n      return\n        /* \"contracts/calculator.sol\":1351:1424  function get() public view returns (int256){... */\n    tag_7:\n      tag_26\n      tag_27\n      jump\t// in\n    tag_26:\n      mload(0x40)\n      tag_28\n      swap2\n      swap1\n      tag_25\n      jump\t// in\n    tag_28:\n      mload(0x40)\n      dup1\n      swap2\n      sub\n      swap1\n      return\n        /* \"contracts/calculator.sol\":1083:1141  function add(int256 n) public {... */\n    tag_8:\n      tag_29\n      0x04\n      dup1\n      calldatasize\n      sub\n      dup2\n      add\n      swap1\n      tag_30\n      swap2\n      swap1\n      tag_14\n      jump\t// in\n    tag_30:\n      tag_31\n      jump\t// in\n    tag_29:\n      stop\n        /* \"contracts/calculator.sol\":801:1073  function cos(int256 n) public {... */\n    tag_9:\n      tag_32\n      0x04\n      dup1\n      calldatasize\n      sub\n      dup2\n      add\n      swap1\n      tag_33\n      swap2\n      swap1\n      tag_14\n      jump\t// in\n    tag_33:\n      tag_34\n      jump\t// in\n    tag_32:\n      stop\n        /* \"contracts/calculator.sol\":1284:1345  function divide(int256 n) public {... */\n    tag_10:\n      tag_35\n      0x04\n      dup1\n      calldatasize\n      sub\n      dup2\n      add\n      swap1\n      tag_36\n      swap2\n      swap1\n      tag_14\n      jump\t// in\n    tag_36:\n      tag_37\n      jump\t// in\n    tag_35:\n      stop\n        /* \"contracts/calculator.sol\":523:795  function sin(int256 n) public {... */\n    tag_15:\n        /* \"contracts/calculator.sol\":563:571  int256 k */\n      0x00\n        /* \"contracts/calculator.sol\":574:575  1 */\n      0x01\n        /* \"contracts/calculator.sol\":563:575  int256 k = 1 */\n      swap1\n      pop\n        /* \"contracts/calculator.sol\":585:595  int256 ans */\n      0x00\n        /* \"contracts/calculator.sol\":609:616  int neg */\n      dup1\n        /* \"contracts/calculator.sol\":619:620  1 */\n      0x01\n        /* \"contracts/calculator.sol\":609:620  int neg = 1 */\n      swap1\n      pop\n        /* \"contracts/calculator.sol\":634:643  uint256 i */\n      0x00\n        /* \"contracts/calculator.sol\":646:647  1 */\n      0x01\n        /* \"contracts/calculator.sol\":634:647  uint256 i = 1 */\n      swap1\n      pop\n        /* \"contracts/calculator.sol\":630:767  for(uint256 i = 1; i <= N; ++i){... */\n    tag_39:\n        /* \"contracts/calculator.sol\":654:655  N */\n      sload(0x01)\n        /* \"contracts/calculator.sol\":649:650  i */\n      dup2\n        /* \"contracts/calculator.sol\":649:655  i <= N */\n      gt\n        /* \"contracts/calculator.sol\":630:767  for(uint256 i = 1; i <= N; ++i){... */\n      tag_40\n      jumpi\n        /* \"contracts/calculator.sol\":700:712  factorial(k) */\n      tag_42\n        /* \"contracts/calculator.sol\":710:711  k */\n      dup5\n        /* \"contracts/calculator.sol\":700:709  factorial */\n      tag_43\n        /* \"contracts/calculator.sol\":700:712  factorial(k) */\n      jump\t// in\n    tag_42:\n        /* \"contracts/calculator.sol\":687:698  power(n, k) */\n      tag_44\n        /* \"contracts/calculator.sol\":693:694  n */\n      dup7\n        /* \"contracts/calculator.sol\":696:697  k */\n      dup7\n        /* \"contracts/calculator.sol\":687:692  power */\n      tag_45\n        /* \"contracts/calculator.sol\":687:698  power(n, k) */\n      jump\t// in\n    tag_44:\n        /* \"contracts/calculator.sol\":683:686  neg */\n      dup4\n        /* \"contracts/calculator.sol\":683:698  neg*power(n, k) */\n      tag_46\n      swap2\n      swap1\n      tag_47\n      jump\t// in\n    tag_46:\n        /* \"contracts/calculator.sol\":682:712  (neg*power(n, k))/factorial(k) */\n      tag_48\n      swap2\n      swap1\n      tag_49\n      jump\t// in\n    tag_48:\n        /* \"contracts/calculator.sol\":675:712  ans += (neg*power(n, k))/factorial(k) */\n      dup4\n      tag_50\n      swap2\n      swap1\n      tag_51\n      jump\t// in\n    tag_50:\n      swap3\n      pop\n        /* \"contracts/calculator.sol\":733:736  neg */\n      dup2\n        /* \"contracts/calculator.sol\":732:736  -neg */\n      tag_52\n      swap1\n      tag_53\n      jump\t// in\n    tag_52:\n        /* \"contracts/calculator.sol\":726:736  neg = -neg */\n      swap2\n      pop\n        /* \"contracts/calculator.sol\":755:756  2 */\n      0x02\n        /* \"contracts/calculator.sol\":750:756  k += 2 */\n      dup5\n      tag_54\n      swap2\n      swap1\n      tag_51\n      jump\t// in\n    tag_54:\n      swap4\n      pop\n        /* \"contracts/calculator.sol\":657:660  ++i */\n      dup1\n      tag_55\n      swap1\n      tag_56\n      jump\t// in\n    tag_55:\n      swap1\n      pop\n        /* \"contracts/calculator.sol\":630:767  for(uint256 i = 1; i <= N; ++i){... */\n      jump(tag_39)\n    tag_40:\n      pop\n        /* \"contracts/calculator.sol\":785:788  ans */\n      dup2\n        /* \"contracts/calculator.sol\":776:782  result */\n      0x00\n        /* \"contracts/calculator.sol\":776:788  result = ans */\n      dup2\n      swap1\n      sstore\n      pop\n        /* \"contracts/calculator.sol\":553:795  {... */\n      pop\n      pop\n      pop\n        /* \"contracts/calculator.sol\":523:795  function sin(int256 n) public {... */\n      pop\n      jump\t// out\n        /* \"contracts/calculator.sol\":1216:1279  function multiply(int256 n) public {... */\n    tag_18:\n        /* \"contracts/calculator.sol\":1271:1272  n */\n      dup1\n        /* \"contracts/calculator.sol\":1261:1267  result */\n      0x00\n      dup1\n        /* \"contracts/calculator.sol\":1261:1272  result *= n */\n      dup3\n      dup3\n      sload\n      tag_58\n      swap2\n      swap1\n      tag_47\n      jump\t// in\n    tag_58:\n      swap3\n      pop\n      pop\n      dup2\n      swap1\n      sstore\n      pop\n        /* \"contracts/calculator.sol\":1216:1279  function multiply(int256 n) public {... */\n      pop\n      jump\t// out\n        /* \"contracts/calculator.sol\":1146:1211  function substract(int256 n) public  {... */\n    tag_21:\n        /* \"contracts/calculator.sol\":1203:1204  n */\n      dup1\n        /* \"contracts/calculator.sol\":1193:1199  result */\n      0x00\n      dup1\n        /* \"contracts/calculator.sol\":1193:1204  result -= n */\n      dup3\n      dup3\n      sload\n      tag_60\n      swap2\n      swap1\n      tag_61\n      jump\t// in\n    tag_60:\n      swap3\n      pop\n      pop\n      dup2\n      swap1\n      sstore\n      pop\n        /* \"contracts/calculator.sol\":1146:1211  function substract(int256 n) public  {... */\n      pop\n      jump\t// out\n        /* \"contracts/calculator.sol\":84:108  int256 public result = 0 */\n    tag_23:\n      sload(0x00)\n      dup2\n      jump\t// out\n        /* \"contracts/calculator.sol\":1351:1424  function get() public view returns (int256){... */\n    tag_27:\n        /* \"contracts/calculator.sol\":1387:1393  int256 */\n      0x00\n        /* \"contracts/calculator.sol\":1411:1417  result */\n      dup1\n      sload\n        /* \"contracts/calculator.sol\":1404:1417  return result */\n      swap1\n      pop\n        /* \"contracts/calculator.sol\":1351:1424  function get() public view returns (int256){... */\n      swap1\n      jump\t// out\n        /* \"contracts/calculator.sol\":1083:1141  function add(int256 n) public {... */\n    tag_31:\n        /* \"contracts/calculator.sol\":1133:1134  n */\n      dup1\n        /* \"contracts/calculator.sol\":1123:1129  result */\n      0x00\n      dup1\n        /* \"contracts/calculator.sol\":1123:1134  result += n */\n      dup3\n      dup3\n      sload\n      tag_64\n      swap2\n      swap1\n      tag_51\n      jump\t// in\n    tag_64:\n      swap3\n      pop\n      pop\n      dup2\n      swap1\n      sstore\n      pop\n        /* \"contracts/calculator.sol\":1083:1141  function add(int256 n) public {... */\n      pop\n      jump\t// out\n        /* \"contracts/calculator.sol\":801:1073  function cos(int256 n) public {... */\n    tag_34:\n        /* \"contracts/calculator.sol\":841:849  int256 k */\n      0x00\n        /* \"contracts/calculator.sol\":863:873  int256 ans */\n      dup1\n        /* \"contracts/calculator.sol\":887:894  int neg */\n      0x00\n        /* \"contracts/calculator.sol\":897:898  1 */\n      0x01\n        /* \"contracts/calculator.sol\":887:898  int neg = 1 */\n      swap1\n      pop\n        /* \"contracts/calculator.sol\":912:921  uint256 i */\n      0x00\n        /* \"contracts/calculator.sol\":924:925  1 */\n      0x01\n        /* \"contracts/calculator.sol\":912:925  uint256 i = 1 */\n      swap1\n      pop\n        /* \"contracts/calculator.sol\":908:1045  for(uint256 i = 1; i <= N; ++i){... */\n    tag_66:\n        /* \"contracts/calculator.sol\":932:933  N */\n      sload(0x01)\n        /* \"contracts/calculator.sol\":927:928  i */\n      dup2\n        /* \"contracts/calculator.sol\":927:933  i <= N */\n      gt\n        /* \"contracts/calculator.sol\":908:1045  for(uint256 i = 1; i <= N; ++i){... */\n      tag_67\n      jumpi\n        /* \"contracts/calculator.sol\":978:990  factorial(k) */\n      tag_69\n        /* \"contracts/calculator.sol\":988:989  k */\n      dup5\n        /* \"contracts/calculator.sol\":978:987  factorial */\n      tag_43\n        /* \"contracts/calculator.sol\":978:990  factorial(k) */\n      jump\t// in\n    tag_69:\n        /* \"contracts/calculator.sol\":965:976  power(n, k) */\n      tag_70\n        /* \"contracts/calculator.sol\":971:972  n */\n      dup7\n        /* \"contracts/calculator.sol\":974:975  k */\n      dup7\n        /* \"contracts/calculator.sol\":965:970  power */\n      tag_45\n        /* \"contracts/calculator.sol\":965:976  power(n, k) */\n      jump\t// in\n    tag_70:\n        /* \"contracts/calculator.sol\":961:964  neg */\n      dup4\n        /* \"contracts/calculator.sol\":961:976  neg*power(n, k) */\n      tag_71\n      swap2\n      swap1\n      tag_47\n      jump\t// in\n    tag_71:\n        /* \"contracts/calculator.sol\":960:990  (neg*power(n, k))/factorial(k) */\n      tag_72\n      swap2\n      swap1\n      tag_49\n      jump\t// in\n    tag_72:\n        /* \"contracts/calculator.sol\":953:990  ans += (neg*power(n, k))/factorial(k) */\n      dup4\n      tag_73\n      swap2\n      swap1\n      tag_51\n      jump\t// in\n    tag_73:\n      swap3\n      pop\n        /* \"contracts/calculator.sol\":1011:1014  neg */\n      dup2\n        /* \"contracts/calculator.sol\":1010:1014  -neg */\n      tag_74\n      swap1\n      tag_53\n      jump\t// in\n    tag_74:\n        /* \"contracts/calculator.sol\":1004:1014  neg = -neg */\n      swap2\n      pop\n        /* \"contracts/calculator.sol\":1033:1034  2 */\n      0x02\n        /* \"contracts/calculator.sol\":1028:1034  k += 2 */\n      dup5\n      tag_75\n      swap2\n      swap1\n      tag_51\n      jump\t// in\n    tag_75:\n      swap4\n      pop\n        /* \"contracts/calculator.sol\":935:938  ++i */\n      dup1\n      tag_76\n      swap1\n      tag_56\n      jump\t// in\n    tag_76:\n      swap1\n      pop\n        /* \"contracts/calculator.sol\":908:1045  for(uint256 i = 1; i <= N; ++i){... */\n      jump(tag_66)\n    tag_67:\n      pop\n        /* \"contracts/calculator.sol\":1063:1066  ans */\n      dup2\n        /* \"contracts/calculator.sol\":1054:1060  result */\n      0x00\n        /* \"contracts/calculator.sol\":1054:1066  result = ans */\n      dup2\n      swap1\n      sstore\n      pop\n        /* \"contracts/calculator.sol\":831:1073  {... */\n      pop\n      pop\n      pop\n        /* \"contracts/calculator.sol\":801:1073  function cos(int256 n) public {... */\n      pop\n      jump\t// out\n        /* \"contracts/calculator.sol\":1284:1345  function divide(int256 n) public {... */\n    tag_37:\n        /* \"contracts/calculator.sol\":1337:1338  n */\n      dup1\n        /* \"contracts/calculator.sol\":1327:1333  result */\n      0x00\n      dup1\n        /* \"contracts/calculator.sol\":1327:1338  result /= n */\n      dup3\n      dup3\n      sload\n      tag_78\n      swap2\n      swap1\n      tag_49\n      jump\t// in\n    tag_78:\n      swap3\n      pop\n      pop\n      dup2\n      swap1\n      sstore\n      pop\n        /* \"contracts/calculator.sol\":1284:1345  function divide(int256 n) public {... */\n      pop\n      jump\t// out\n        /* \"contracts/calculator.sol\":136:321  function factorial(int256 n) internal pure returns (int256) {... */\n    tag_43:\n        /* \"contracts/calculator.sol\":188:194  int256 */\n      0x00\n        /* \"contracts/calculator.sol\":206:216  int256 ans */\n      dup1\n        /* \"contracts/calculator.sol\":219:220  1 */\n      0x01\n        /* \"contracts/calculator.sol\":206:220  int256 ans = 1 */\n      swap1\n      pop\n        /* \"contracts/calculator.sol\":235:243  int256 i */\n      0x00\n        /* \"contracts/calculator.sol\":246:247  2 */\n      0x02\n        /* \"contracts/calculator.sol\":235:247  int256 i = 2 */\n      swap1\n      pop\n        /* \"contracts/calculator.sol\":230:295  for (int256 i = 2; i <= n; i++) {... */\n    tag_80:\n        /* \"contracts/calculator.sol\":254:255  n */\n      dup4\n        /* \"contracts/calculator.sol\":249:250  i */\n      dup2\n        /* \"contracts/calculator.sol\":249:255  i <= n */\n      sgt\n        /* \"contracts/calculator.sol\":230:295  for (int256 i = 2; i <= n; i++) {... */\n      tag_81\n      jumpi\n        /* \"contracts/calculator.sol\":283:284  i */\n      dup1\n        /* \"contracts/calculator.sol\":276:284  ans *= i */\n      dup3\n      tag_83\n      swap2\n      swap1\n      tag_47\n      jump\t// in\n    tag_83:\n      swap2\n      pop\n        /* \"contracts/calculator.sol\":257:260  i++ */\n      dup1\n      dup1\n      tag_84\n      swap1\n      tag_85\n      jump\t// in\n    tag_84:\n      swap2\n      pop\n      pop\n        /* \"contracts/calculator.sol\":230:295  for (int256 i = 2; i <= n; i++) {... */\n      jump(tag_80)\n    tag_81:\n      pop\n        /* \"contracts/calculator.sol\":311:314  ans */\n      dup1\n        /* \"contracts/calculator.sol\":304:314  return ans */\n      swap2\n      pop\n      pop\n        /* \"contracts/calculator.sol\":136:321  function factorial(int256 n) internal pure returns (int256) {... */\n      swap2\n      swap1\n      pop\n      jump\t// out\n        /* \"contracts/calculator.sol\":327:517  function power(int256 n, int256 k) internal pure  returns (int256) {... */\n    tag_45:\n        /* \"contracts/calculator.sol\":386:392  int256 */\n      0x00\n        /* \"contracts/calculator.sol\":404:414  int256 ans */\n      dup1\n        /* \"contracts/calculator.sol\":417:418  1 */\n      0x01\n        /* \"contracts/calculator.sol\":404:418  int256 ans = 1 */\n      swap1\n      pop\n        /* \"contracts/calculator.sol\":432:440  int256 i */\n      0x00\n        /* \"contracts/calculator.sol\":443:444  1 */\n      0x01\n        /* \"contracts/calculator.sol\":432:444  int256 i = 1 */\n      swap1\n      pop\n        /* \"contracts/calculator.sol\":428:491  for(int256 i = 1; i <= k; ++i){... */\n    tag_87:\n        /* \"contracts/calculator.sol\":451:452  k */\n      dup4\n        /* \"contracts/calculator.sol\":446:447  i */\n      dup2\n        /* \"contracts/calculator.sol\":446:452  i <= k */\n      sgt\n        /* \"contracts/calculator.sol\":428:491  for(int256 i = 1; i <= k; ++i){... */\n      tag_88\n      jumpi\n        /* \"contracts/calculator.sol\":479:480  n */\n      dup5\n        /* \"contracts/calculator.sol\":472:480  ans *= n */\n      dup3\n      tag_90\n      swap2\n      swap1\n      tag_47\n      jump\t// in\n    tag_90:\n      swap2\n      pop\n        /* \"contracts/calculator.sol\":454:457  ++i */\n      dup1\n      tag_91\n      swap1\n      tag_85\n      jump\t// in\n    tag_91:\n      swap1\n      pop\n        /* \"contracts/calculator.sol\":428:491  for(int256 i = 1; i <= k; ++i){... */\n      jump(tag_87)\n    tag_88:\n      pop\n        /* \"contracts/calculator.sol\":507:510  ans */\n      dup1\n        /* \"contracts/calculator.sol\":500:510  return ans */\n      swap2\n      pop\n      pop\n        /* \"contracts/calculator.sol\":327:517  function power(int256 n, int256 k) internal pure  returns (int256) {... */\n      swap3\n      swap2\n      pop\n      pop\n      jump\t// out\n        /* \"#utility.yul\":88:205   */\n    tag_93:\n        /* \"#utility.yul\":197:198   */\n      0x00\n        /* \"#utility.yul\":194:195   */\n      dup1\n        /* \"#utility.yul\":187:199   */\n      revert\n        /* \"#utility.yul\":334:410   */\n    tag_95:\n        /* \"#utility.yul\":370:377   */\n      0x00\n        /* \"#utility.yul\":399:404   */\n      dup2\n        /* \"#utility.yul\":388:404   */\n      swap1\n      pop\n        /* \"#utility.yul\":334:410   */\n      swap2\n      swap1\n      pop\n      jump\t// out\n        /* \"#utility.yul\":416:536   */\n    tag_96:\n        /* \"#utility.yul\":488:511   */\n      tag_108\n        /* \"#utility.yul\":505:510   */\n      dup2\n        /* \"#utility.yul\":488:511   */\n      tag_95\n      jump\t// in\n    tag_108:\n        /* \"#utility.yul\":481:486   */\n      dup2\n        /* \"#utility.yul\":478:512   */\n      eq\n        /* \"#utility.yul\":468:530   */\n      tag_109\n      jumpi\n        /* \"#utility.yul\":526:527   */\n      0x00\n        /* \"#utility.yul\":523:524   */\n      dup1\n        /* \"#utility.yul\":516:528   */\n      revert\n        /* \"#utility.yul\":468:530   */\n    tag_109:\n        /* \"#utility.yul\":416:536   */\n      pop\n      jump\t// out\n        /* \"#utility.yul\":542:679   */\n    tag_97:\n        /* \"#utility.yul\":587:592   */\n      0x00\n        /* \"#utility.yul\":625:631   */\n      dup2\n        /* \"#utility.yul\":612:632   */\n      calldataload\n        /* \"#utility.yul\":603:632   */\n      swap1\n      pop\n        /* \"#utility.yul\":641:673   */\n      tag_111\n        /* \"#utility.yul\":667:672   */\n      dup2\n        /* \"#utility.yul\":641:673   */\n      tag_96\n      jump\t// in\n    tag_111:\n        /* \"#utility.yul\":542:679   */\n      swap3\n      swap2\n      pop\n      pop\n      jump\t// out\n        /* \"#utility.yul\":685:1012   */\n    tag_14:\n        /* \"#utility.yul\":743:749   */\n      0x00\n        /* \"#utility.yul\":792:794   */\n      0x20\n        /* \"#utility.yul\":780:789   */\n      dup3\n        /* \"#utility.yul\":771:778   */\n      dup5\n        /* \"#utility.yul\":767:790   */\n      sub\n        /* \"#utility.yul\":763:795   */\n      slt\n        /* \"#utility.yul\":760:879   */\n      iszero\n      tag_113\n      jumpi\n        /* \"#utility.yul\":798:877   */\n      tag_114\n      tag_93\n      jump\t// in\n    tag_114:\n        /* \"#utility.yul\":760:879   */\n    tag_113:\n        /* \"#utility.yul\":918:919   */\n      0x00\n        /* \"#utility.yul\":943:995   */\n      tag_115\n        /* \"#utility.yul\":987:994   */\n      dup5\n        /* \"#utility.yul\":978:984   */\n      dup3\n        /* \"#utility.yul\":967:976   */\n      dup6\n        /* \"#utility.yul\":963:985   */\n      add\n        /* \"#utility.yul\":943:995   */\n      tag_97\n      jump\t// in\n    tag_115:\n        /* \"#utility.yul\":933:995   */\n      swap2\n      pop\n        /* \"#utility.yul\":889:1005   */\n      pop\n        /* \"#utility.yul\":685:1012   */\n      swap3\n      swap2\n      pop\n      pop\n      jump\t// out\n        /* \"#utility.yul\":1018:1133   */\n    tag_98:\n        /* \"#utility.yul\":1103:1126   */\n      tag_117\n        /* \"#utility.yul\":1120:1125   */\n      dup2\n        /* \"#utility.yul\":1103:1126   */\n      tag_95\n      jump\t// in\n    tag_117:\n        /* \"#utility.yul\":1098:1101   */\n      dup3\n        /* \"#utility.yul\":1091:1127   */\n      mstore\n        /* \"#utility.yul\":1018:1133   */\n      pop\n      pop\n      jump\t// out\n        /* \"#utility.yul\":1139:1357   */\n    tag_25:\n        /* \"#utility.yul\":1230:1234   */\n      0x00\n        /* \"#utility.yul\":1268:1270   */\n      0x20\n        /* \"#utility.yul\":1257:1266   */\n      dup3\n        /* \"#utility.yul\":1253:1271   */\n      add\n        /* \"#utility.yul\":1245:1271   */\n      swap1\n      pop\n        /* \"#utility.yul\":1281:1350   */\n      tag_119\n        /* \"#utility.yul\":1347:1348   */\n      0x00\n        /* \"#utility.yul\":1336:1345   */\n      dup4\n        /* \"#utility.yul\":1332:1349   */\n      add\n        /* \"#utility.yul\":1323:1329   */\n      dup5\n        /* \"#utility.yul\":1281:1350   */\n      tag_98\n      jump\t// in\n    tag_119:\n        /* \"#utility.yul\":1139:1357   */\n      swap3\n      swap2\n      pop\n      pop\n      jump\t// out\n        /* \"#utility.yul\":1363:1543   */\n    tag_99:\n        /* \"#utility.yul\":1411:1488   */\n      0x4e487b7100000000000000000000000000000000000000000000000000000000\n        /* \"#utility.yul\":1408:1409   */\n      0x00\n        /* \"#utility.yul\":1401:1489   */\n      mstore\n        /* \"#utility.yul\":1508:1512   */\n      0x11\n        /* \"#utility.yul\":1505:1506   */\n      0x04\n        /* \"#utility.yul\":1498:1513   */\n      mstore\n        /* \"#utility.yul\":1532:1536   */\n      0x24\n        /* \"#utility.yul\":1529:1530   */\n      0x00\n        /* \"#utility.yul\":1522:1537   */\n      revert\n        /* \"#utility.yul\":1549:2105   */\n    tag_47:\n        /* \"#utility.yul\":1588:1595   */\n      0x00\n        /* \"#utility.yul\":1611:1630   */\n      tag_122\n        /* \"#utility.yul\":1628:1629   */\n      dup3\n        /* \"#utility.yul\":1611:1630   */\n      tag_95\n      jump\t// in\n    tag_122:\n        /* \"#utility.yul\":1606:1630   */\n      swap2\n      pop\n        /* \"#utility.yul\":1644:1663   */\n      tag_123\n        /* \"#utility.yul\":1661:1662   */\n      dup4\n        /* \"#utility.yul\":1644:1663   */\n      tag_95\n      jump\t// in\n    tag_123:\n        /* \"#utility.yul\":1639:1663   */\n      swap3\n      pop\n        /* \"#utility.yul\":1698:1699   */\n      dup3\n        /* \"#utility.yul\":1695:1696   */\n      dup3\n        /* \"#utility.yul\":1691:1700   */\n      mul\n        /* \"#utility.yul\":1720:1749   */\n      tag_124\n        /* \"#utility.yul\":1737:1748   */\n      dup2\n        /* \"#utility.yul\":1720:1749   */\n      tag_95\n      jump\t// in\n    tag_124:\n        /* \"#utility.yul\":1709:1749   */\n      swap2\n      pop\n        /* \"#utility.yul\":1807:1873   */\n      0x8000000000000000000000000000000000000000000000000000000000000000\n        /* \"#utility.yul\":1804:1805   */\n      dup5\n        /* \"#utility.yul\":1801:1874   */\n      eq\n        /* \"#utility.yul\":1797:1798   */\n      0x00\n        /* \"#utility.yul\":1794:1795   */\n      dup5\n        /* \"#utility.yul\":1790:1799   */\n      slt\n        /* \"#utility.yul\":1786:1875   */\n      and\n        /* \"#utility.yul\":1783:1898   */\n      iszero\n      tag_125\n      jumpi\n        /* \"#utility.yul\":1878:1896   */\n      tag_126\n      tag_99\n      jump\t// in\n    tag_126:\n        /* \"#utility.yul\":1783:1898   */\n    tag_125:\n        /* \"#utility.yul\":2048:2049   */\n      dup3\n        /* \"#utility.yul\":2039:2046   */\n      dup3\n        /* \"#utility.yul\":2034:2050   */\n      sdiv\n        /* \"#utility.yul\":2031:2032   */\n      dup5\n        /* \"#utility.yul\":2028:2051   */\n      eq\n        /* \"#utility.yul\":2008:2009   */\n      dup4\n        /* \"#utility.yul\":2001:2010   */\n      iszero\n        /* \"#utility.yul\":1981:2065   */\n      or\n        /* \"#utility.yul\":1958:2098   */\n      tag_127\n      jumpi\n        /* \"#utility.yul\":2078:2096   */\n      tag_128\n      tag_99\n      jump\t// in\n    tag_128:\n        /* \"#utility.yul\":1958:2098   */\n    tag_127:\n        /* \"#utility.yul\":1596:2105   */\n      pop\n        /* \"#utility.yul\":1549:2105   */\n      swap3\n      swap2\n      pop\n      pop\n      jump\t// out\n        /* \"#utility.yul\":2111:2291   */\n    tag_100:\n        /* \"#utility.yul\":2159:2236   */\n      0x4e487b7100000000000000000000000000000000000000000000000000000000\n        /* \"#utility.yul\":2156:2157   */\n      0x00\n        /* \"#utility.yul\":2149:2237   */\n      mstore\n        /* \"#utility.yul\":2256:2260   */\n      0x12\n        /* \"#utility.yul\":2253:2254   */\n      0x04\n        /* \"#utility.yul\":2246:2261   */\n      mstore\n        /* \"#utility.yul\":2280:2284   */\n      0x24\n        /* \"#utility.yul\":2277:2278   */\n      0x00\n        /* \"#utility.yul\":2270:2285   */\n      revert\n        /* \"#utility.yul\":2297:2682   */\n    tag_49:\n        /* \"#utility.yul\":2336:2337   */\n      0x00\n        /* \"#utility.yul\":2353:2372   */\n      tag_131\n        /* \"#utility.yul\":2370:2371   */\n      dup3\n        /* \"#utility.yul\":2353:2372   */\n      tag_95\n      jump\t// in\n    tag_131:\n        /* \"#utility.yul\":2348:2372   */\n      swap2\n      pop\n        /* \"#utility.yul\":2386:2405   */\n      tag_132\n        /* \"#utility.yul\":2403:2404   */\n      dup4\n        /* \"#utility.yul\":2386:2405   */\n      tag_95\n      jump\t// in\n    tag_132:\n        /* \"#utility.yul\":2381:2405   */\n      swap3\n      pop\n        /* \"#utility.yul\":2424:2425   */\n      dup3\n        /* \"#utility.yul\":2414:2449   */\n      tag_133\n      jumpi\n        /* \"#utility.yul\":2429:2447   */\n      tag_134\n      tag_100\n      jump\t// in\n    tag_134:\n        /* \"#utility.yul\":2414:2449   */\n    tag_133:\n        /* \"#utility.yul\":2615:2616   */\n      0x01\n        /* \"#utility.yul\":2612:2613   */\n      0x00\n        /* \"#utility.yul\":2608:2617   */\n      sub\n        /* \"#utility.yul\":2605:2606   */\n      dup4\n        /* \"#utility.yul\":2602:2618   */\n      eq\n        /* \"#utility.yul\":2521:2587   */\n      0x8000000000000000000000000000000000000000000000000000000000000000\n        /* \"#utility.yul\":2518:2519   */\n      dup4\n        /* \"#utility.yul\":2515:2588   */\n      eq\n        /* \"#utility.yul\":2498:2628   */\n      and\n        /* \"#utility.yul\":2495:2651   */\n      iszero\n      tag_135\n      jumpi\n        /* \"#utility.yul\":2631:2649   */\n      tag_136\n      tag_99\n      jump\t// in\n    tag_136:\n        /* \"#utility.yul\":2495:2651   */\n    tag_135:\n        /* \"#utility.yul\":2674:2675   */\n      dup3\n        /* \"#utility.yul\":2671:2672   */\n      dup3\n        /* \"#utility.yul\":2666:2676   */\n      sdiv\n        /* \"#utility.yul\":2661:2676   */\n      swap1\n      pop\n        /* \"#utility.yul\":2297:2682   */\n      swap3\n      swap2\n      pop\n      pop\n      jump\t// out\n        /* \"#utility.yul\":2688:3063   */\n    tag_51:\n        /* \"#utility.yul\":2727:2730   */\n      0x00\n        /* \"#utility.yul\":2746:2765   */\n      tag_138\n        /* \"#utility.yul\":2763:2764   */\n      dup3\n        /* \"#utility.yul\":2746:2765   */\n      tag_95\n      jump\t// in\n    tag_138:\n        /* \"#utility.yul\":2741:2765   */\n      swap2\n      pop\n        /* \"#utility.yul\":2779:2798   */\n      tag_139\n        /* \"#utility.yul\":2796:2797   */\n      dup4\n        /* \"#utility.yul\":2779:2798   */\n      tag_95\n      jump\t// in\n    tag_139:\n        /* \"#utility.yul\":2774:2798   */\n      swap3\n      pop\n        /* \"#utility.yul\":2821:2822   */\n      dup3\n        /* \"#utility.yul\":2818:2819   */\n      dup3\n        /* \"#utility.yul\":2814:2823   */\n      add\n        /* \"#utility.yul\":2807:2823   */\n      swap1\n      pop\n        /* \"#utility.yul\":3019:3020   */\n      dup3\n        /* \"#utility.yul\":3014:3017   */\n      dup2\n        /* \"#utility.yul\":3010:3021   */\n      slt\n        /* \"#utility.yul\":3003:3022   */\n      iszero\n        /* \"#utility.yul\":2999:3000   */\n      0x00\n        /* \"#utility.yul\":2996:2997   */\n      dup4\n        /* \"#utility.yul\":2992:3001   */\n      slt\n        /* \"#utility.yul\":2988:3023   */\n      and\n        /* \"#utility.yul\":2971:2972   */\n      dup4\n        /* \"#utility.yul\":2966:2969   */\n      dup3\n        /* \"#utility.yul\":2962:2973   */\n      slt\n        /* \"#utility.yul\":2957:2958   */\n      0x00\n        /* \"#utility.yul\":2954:2955   */\n      dup5\n        /* \"#utility.yul\":2950:2959   */\n      slt\n        /* \"#utility.yul\":2943:2960   */\n      iszero\n        /* \"#utility.yul\":2939:2974   */\n      and\n        /* \"#utility.yul\":2923:3033   */\n      or\n        /* \"#utility.yul\":2920:3056   */\n      iszero\n      tag_140\n      jumpi\n        /* \"#utility.yul\":3036:3054   */\n      tag_141\n      tag_99\n      jump\t// in\n    tag_141:\n        /* \"#utility.yul\":2920:3056   */\n    tag_140:\n        /* \"#utility.yul\":2688:3063   */\n      swap3\n      swap2\n      pop\n      pop\n      jump\t// out\n        /* \"#utility.yul\":3069:3297   */\n    tag_53:\n        /* \"#utility.yul\":3104:3107   */\n      0x00\n        /* \"#utility.yul\":3127:3150   */\n      tag_143\n        /* \"#utility.yul\":3144:3149   */\n      dup3\n        /* \"#utility.yul\":3127:3150   */\n      tag_95\n      jump\t// in\n    tag_143:\n        /* \"#utility.yul\":3118:3150   */\n      swap2\n      pop\n        /* \"#utility.yul\":3172:3238   */\n      0x8000000000000000000000000000000000000000000000000000000000000000\n        /* \"#utility.yul\":3165:3170   */\n      dup3\n        /* \"#utility.yul\":3162:3239   */\n      sub\n        /* \"#utility.yul\":3159:3262   */\n      tag_144\n      jumpi\n        /* \"#utility.yul\":3242:3260   */\n      tag_145\n      tag_99\n      jump\t// in\n    tag_145:\n        /* \"#utility.yul\":3159:3262   */\n    tag_144:\n        /* \"#utility.yul\":3285:3290   */\n      dup2\n        /* \"#utility.yul\":3282:3283   */\n      0x00\n        /* \"#utility.yul\":3278:3291   */\n      sub\n        /* \"#utility.yul\":3271:3291   */\n      swap1\n      pop\n        /* \"#utility.yul\":3069:3297   */\n      swap2\n      swap1\n      pop\n      jump\t// out\n        /* \"#utility.yul\":3303:3380   */\n    tag_101:\n        /* \"#utility.yul\":3340:3347   */\n      0x00\n        /* \"#utility.yul\":3369:3374   */\n      dup2\n        /* \"#utility.yul\":3358:3374   */\n      swap1\n      pop\n        /* \"#utility.yul\":3303:3380   */\n      swap2\n      swap1\n      pop\n      jump\t// out\n        /* \"#utility.yul\":3386:3619   */\n    tag_56:\n        /* \"#utility.yul\":3425:3428   */\n      0x00\n        /* \"#utility.yul\":3448:3472   */\n      tag_148\n        /* \"#utility.yul\":3466:3471   */\n      dup3\n        /* \"#utility.yul\":3448:3472   */\n      tag_101\n      jump\t// in\n    tag_148:\n        /* \"#utility.yul\":3439:3472   */\n      swap2\n      pop\n        /* \"#utility.yul\":3494:3560   */\n      0xffffffffffffffffffffffffffffffffffffffffffffffffffffffffffffffff\n        /* \"#utility.yul\":3487:3492   */\n      dup3\n        /* \"#utility.yul\":3484:3561   */\n      sub\n        /* \"#utility.yul\":3481:3584   */\n      tag_149\n      jumpi\n        /* \"#utility.yul\":3564:3582   */\n      tag_150\n      tag_99\n      jump\t// in\n    tag_150:\n        /* \"#utility.yul\":3481:3584   */\n    tag_149:\n        /* \"#utility.yul\":3611:3612   */\n      0x01\n        /* \"#utility.yul\":3604:3609   */\n      dup3\n        /* \"#utility.yul\":3600:3613   */\n      add\n        /* \"#utility.yul\":3593:3613   */\n      swap1\n      pop\n        /* \"#utility.yul\":3386:3619   */\n      swap2\n      swap1\n      pop\n      jump\t// out\n        /* \"#utility.yul\":3625:3997   */\n    tag_61:\n        /* \"#utility.yul\":3664:3668   */\n      0x00\n        /* \"#utility.yul\":3684:3703   */\n      tag_152\n        /* \"#utility.yul\":3701:3702   */\n      dup3\n        /* \"#utility.yul\":3684:3703   */\n      tag_95\n      jump\t// in\n    tag_152:\n        /* \"#utility.yul\":3679:3703   */\n      swap2\n      pop\n        /* \"#utility.yul\":3717:3736   */\n      tag_153\n        /* \"#utility.yul\":3734:3735   */\n      dup4\n        /* \"#utility.yul\":3717:3736   */\n      tag_95\n      jump\t// in\n    tag_153:\n        /* \"#utility.yul\":3712:3736   */\n      swap3\n      pop\n        /* \"#utility.yul\":3760:3761   */\n      dup3\n        /* \"#utility.yul\":3757:3758   */\n      dup3\n        /* \"#utility.yul\":3753:3762   */\n      sub\n        /* \"#utility.yul\":3745:3762   */\n      swap1\n      pop\n        /* \"#utility.yul\":3954:3955   */\n      dup2\n        /* \"#utility.yul\":3948:3952   */\n      dup2\n        /* \"#utility.yul\":3944:3956   */\n      slt\n        /* \"#utility.yul\":3940:3941   */\n      0x00\n        /* \"#utility.yul\":3937:3938   */\n      dup5\n        /* \"#utility.yul\":3933:3942   */\n      slt\n        /* \"#utility.yul\":3929:3957   */\n      and\n        /* \"#utility.yul\":3912:3913   */\n      dup3\n        /* \"#utility.yul\":3906:3910   */\n      dup3\n        /* \"#utility.yul\":3902:3914   */\n      sgt\n        /* \"#utility.yul\":3897:3898   */\n      0x00\n        /* \"#utility.yul\":3894:3895   */\n      dup6\n        /* \"#utility.yul\":3890:3899   */\n      slt\n        /* \"#utility.yul\":3883:3900   */\n      iszero\n        /* \"#utility.yul\":3879:3915   */\n      and\n        /* \"#utility.yul\":3863:3967   */\n      or\n        /* \"#utility.yul\":3860:3990   */\n      iszero\n      tag_154\n      jumpi\n        /* \"#utility.yul\":3970:3988   */\n      tag_155\n      tag_99\n      jump\t// in\n    tag_155:\n        /* \"#utility.yul\":3860:3990   */\n    tag_154:\n        /* \"#utility.yul\":3625:3997   */\n      swap3\n      swap2\n      pop\n      pop\n      jump\t// out\n        /* \"#utility.yul\":4003:4234   */\n    tag_85:\n        /* \"#utility.yul\":4041:4044   */\n      0x00\n        /* \"#utility.yul\":4064:4087   */\n      tag_157\n        /* \"#utility.yul\":4081:4086   */\n      dup3\n        /* \"#utility.yul\":4064:4087   */\n      tag_95\n      jump\t// in\n    tag_157:\n        /* \"#utility.yul\":4055:4087   */\n      swap2\n      pop\n        /* \"#utility.yul\":4109:4175   */\n      0x7fffffffffffffffffffffffffffffffffffffffffffffffffffffffffffffff\n        /* \"#utility.yul\":4102:4107   */\n      dup3\n        /* \"#utility.yul\":4099:4176   */\n      sub\n        /* \"#utility.yul\":4096:4199   */\n      tag_158\n      jumpi\n        /* \"#utility.yul\":4179:4197   */\n      tag_159\n      tag_99\n      jump\t// in\n    tag_159:\n        /* \"#utility.yul\":4096:4199   */\n    tag_158:\n        /* \"#utility.yul\":4226:4227   */\n      0x01\n        /* \"#utility.yul\":4219:4224   */\n      dup3\n        /* \"#utility.yul\":4215:4228   */\n      add\n        /* \"#utility.yul\":4208:4228   */\n      swap1\n      pop\n        /* \"#utility.yul\":4003:4234   */\n      swap2\n      swap1\n      pop\n      jump\t// out\n\n    auxdata: 0xa2646970667358221220a20d05953ea70d709567307c7f52b559ac019c7b80f5ff4d8183be796390467a64736f6c634300081a0033\n}\n",
				"bytecode": {
					"linkReferences": {},
					"object": "60806040525f8055620186a06001553480156018575f80fd5b506106c0806100265f395ff3fe608060405234801561000f575f80fd5b5060043610610086575f3560e01c80636d4ce63c116100595780636d4ce63c146100fc57806387db03b71461011a5780639b666d7a14610136578063aaa044dc1461015257610086565b806316173f391461008a5780631df4f144146100a65780634dd9fb71146100c257806365372147146100de575b5f80fd5b6100a4600480360381019061009f91906103a1565b61016e565b005b6100c060048036038101906100bb91906103a1565b6101f6565b005b6100dc60048036038101906100d791906103a1565b610210565b005b6100e661022a565b6040516100f391906103db565b60405180910390f35b61010461022f565b60405161011191906103db565b60405180910390f35b610134600480360381019061012f91906103a1565b610237565b005b610150600480360381019061014b91906103a1565b610251565b005b61016c600480360381019061016791906103a1565b6102d5565b005b5f600190505f80600190505f600190505b60015481116101e957610191846102ef565b61019b868661032d565b836101a69190610421565b6101b091906104c4565b836101bb919061052c565b9250816101c79061056d565b91506002846101d6919061052c565b9350806101e2906105bc565b905061017f565b50815f8190555050505050565b805f808282546102069190610421565b9250508190555050565b805f808282546102209190610603565b9250508190555050565b5f5481565b5f8054905090565b805f80828254610247919061052c565b9250508190555050565b5f805f600190505f600190505b60015481116102c857610270846102ef565b61027a868661032d565b836102859190610421565b61028f91906104c4565b8361029a919061052c565b9250816102a69061056d565b91506002846102b5919061052c565b9350806102c1906105bc565b905061025e565b50815f8190555050505050565b805f808282546102e591906104c4565b9250508190555050565b5f80600190505f600290505b83811361032357808261030e9190610421565b9150808061031b90610643565b9150506102fb565b5080915050919050565b5f80600190505f600190505b83811361035f57848261034c9190610421565b91508061035890610643565b9050610339565b508091505092915050565b5f80fd5b5f819050919050565b6103808161036e565b811461038a575f80fd5b50565b5f8135905061039b81610377565b92915050565b5f602082840312156103b6576103b561036a565b5b5f6103c38482850161038d565b91505092915050565b6103d58161036e565b82525050565b5f6020820190506103ee5f8301846103cc565b92915050565b7f4e487b71000000000000000000000000000000000000000000000000000000005f52601160045260245ffd5b5f61042b8261036e565b91506104368361036e565b92508282026104448161036e565b91507f800000000000000000000000000000000000000000000000000000000000000084145f8412161561047b5761047a6103f4565b5b82820584148315176104905761048f6103f4565b5b5092915050565b7f4e487b71000000000000000000000000000000000000000000000000000000005f52601260045260245ffd5b5f6104ce8261036e565b91506104d98361036e565b9250826104e9576104e8610497565b5b60015f0383147f800000000000000000000000000000000000000000000000000000000000000083141615610521576105206103f4565b5b828205905092915050565b5f6105368261036e565b91506105418361036e565b92508282019050828112155f8312168382125f841215161715610567576105666103f4565b5b92915050565b5f6105778261036e565b91507f800000000000000000000000000000000000000000000000000000000000000082036105a9576105a86103f4565b5b815f039050919050565b5f819050919050565b5f6105c6826105b3565b91507fffffffffffffffffffffffffffffffffffffffffffffffffffffffffffffffff82036105f8576105f76103f4565b5b600182019050919050565b5f61060d8261036e565b91506106188361036e565b925082820390508181125f8412168282135f85121516171561063d5761063c6103f4565b5b92915050565b5f61064d8261036e565b91507f7fffffffffffffffffffffffffffffffffffffffffffffffffffffffffffffff820361067f5761067e6103f4565b5b60018201905091905056fea2646970667358221220a20d05953ea70d709567307c7f52b559ac019c7b80f5ff4d8183be796390467a64736f6c634300081a0033",
					"opcodes": "PUSH1 0x80 PUSH1 0x40 MSTORE PUSH0 DUP1 SSTORE PUSH3 0x186A0 PUSH1 0x1 SSTORE CALLVALUE DUP1 ISZERO PUSH1 0x18 JUMPI PUSH0 DUP1 REVERT JUMPDEST POP PUSH2 0x6C0 DUP1 PUSH2 0x26 PUSH0 CODECOPY PUSH0 RETURN INVALID PUSH1 0x80 PUSH1 0x40 MSTORE CALLVALUE DUP1 ISZERO PUSH2 0xF JUMPI PUSH0 DUP1 REVERT JUMPDEST POP PUSH1 0x4 CALLDATASIZE LT PUSH2 0x86 JUMPI PUSH0 CALLDATALOAD PUSH1 0xE0 SHR DUP1 PUSH4 0x6D4CE63C GT PUSH2 0x59 JUMPI DUP1 PUSH4 0x6D4CE63C EQ PUSH2 0xFC JUMPI DUP1 PUSH4 0x87DB03B7 EQ PUSH2 0x11A JUMPI DUP1 PUSH4 0x9B666D7A EQ PUSH2 0x136 JUMPI DUP1 PUSH4 0xAAA044DC EQ PUSH2 0x152 JUMPI PUSH2 0x86 JUMP JUMPDEST DUP1 PUSH4 0x16173F39 EQ PUSH2 0x8A JUMPI DUP1 PUSH4 0x1DF4F144 EQ PUSH2 0xA6 JUMPI DUP1 PUSH4 0x4DD9FB71 EQ PUSH2 0xC2 JUMPI DUP1 PUSH4 0x65372147 EQ PUSH2 0xDE JUMPI JUMPDEST PUSH0 DUP1 REVERT JUMPDEST PUSH2 0xA4 PUSH1 0x4 DUP1 CALLDATASIZE SUB DUP2 ADD SWAP1 PUSH2 0x9F SWAP2 SWAP1 PUSH2 0x3A1 JUMP JUMPDEST PUSH2 0x16E JUMP JUMPDEST STOP JUMPDEST PUSH2 0xC0 PUSH1 0x4 DUP1 CALLDATASIZE SUB DUP2 ADD SWAP1 PUSH2 0xBB SWAP2 SWAP1 PUSH2 0x3A1 JUMP JUMPDEST PUSH2 0x1F6 JUMP JUMPDEST STOP JUMPDEST PUSH2 0xDC PUSH1 0x4 DUP1 CALLDATASIZE SUB DUP2 ADD SWAP1 PUSH2 0xD7 SWAP2 SWAP1 PUSH2 0x3A1 JUMP JUMPDEST PUSH2 0x210 JUMP JUMPDEST STOP JUMPDEST PUSH2 0xE6 PUSH2 0x22A JUMP JUMPDEST PUSH1 0x40 MLOAD PUSH2 0xF3 SWAP2 SWAP1 PUSH2 0x3DB JUMP JUMPDEST PUSH1 0x40 MLOAD DUP1 SWAP2 SUB SWAP1 RETURN JUMPDEST PUSH2 0x104 PUSH2 0x22F JUMP JUMPDEST PUSH1 0x40 MLOAD PUSH2 0x111 SWAP2 SWAP1 PUSH2 0x3DB JUMP JUMPDEST PUSH1 0x40 MLOAD DUP1 SWAP2 SUB SWAP1 RETURN JUMPDEST PUSH2 0x134 PUSH1 0x4 DUP1 CALLDATASIZE SUB DUP2 ADD SWAP1 PUSH2 0x12F SWAP2 SWAP1 PUSH2 0x3A1 JUMP JUMPDEST PUSH2 0x237 JUMP JUMPDEST STOP JUMPDEST PUSH2 0x150 PUSH1 0x4 DUP1 CALLDATASIZE SUB DUP2 ADD SWAP1 PUSH2 0x14B SWAP2 SWAP1 PUSH2 0x3A1 JUMP JUMPDEST PUSH2 0x251 JUMP JUMPDEST STOP JUMPDEST PUSH2 0x16C PUSH1 0x4 DUP1 CALLDATASIZE SUB DUP2 ADD SWAP1 PUSH2 0x167 SWAP2 SWAP1 PUSH2 0x3A1 JUMP JUMPDEST PUSH2 0x2D5 JUMP JUMPDEST STOP JUMPDEST PUSH0 PUSH1 0x1 SWAP1 POP PUSH0 DUP1 PUSH1 0x1 SWAP1 POP PUSH0 PUSH1 0x1 SWAP1 POP JUMPDEST PUSH1 0x1 SLOAD DUP2 GT PUSH2 0x1E9 JUMPI PUSH2 0x191 DUP5 PUSH2 0x2EF JUMP JUMPDEST PUSH2 0x19B DUP7 DUP7 PUSH2 0x32D JUMP JUMPDEST DUP4 PUSH2 0x1A6 SWAP2 SWAP1 PUSH2 0x421 JUMP JUMPDEST PUSH2 0x1B0 SWAP2 SWAP1 PUSH2 0x4C4 JUMP JUMPDEST DUP4 PUSH2 0x1BB SWAP2 SWAP1 PUSH2 0x52C JUMP JUMPDEST SWAP3 POP DUP2 PUSH2 0x1C7 SWAP1 PUSH2 0x56D JUMP JUMPDEST SWAP2 POP PUSH1 0x2 DUP5 PUSH2 0x1D6 SWAP2 SWAP1 PUSH2 0x52C JUMP JUMPDEST SWAP4 POP DUP1 PUSH2 0x1E2 SWAP1 PUSH2 0x5BC JUMP JUMPDEST SWAP1 POP PUSH2 0x17F JUMP JUMPDEST POP DUP2 PUSH0 DUP2 SWAP1 SSTORE POP POP POP POP POP JUMP JUMPDEST DUP1 PUSH0 DUP1 DUP3 DUP3 SLOAD PUSH2 0x206 SWAP2 SWAP1 PUSH2 0x421 JUMP JUMPDEST SWAP3 POP POP DUP2 SWAP1 SSTORE POP POP JUMP JUMPDEST DUP1 PUSH0 DUP1 DUP3 DUP3 SLOAD PUSH2 0x220 SWAP2 SWAP1 PUSH2 0x603 JUMP JUMPDEST SWAP3 POP POP DUP2 SWAP1 SSTORE POP POP JUMP JUMPDEST PUSH0 SLOAD DUP2 JUMP JUMPDEST PUSH0 DUP1 SLOAD SWAP1 POP SWAP1 JUMP JUMPDEST DUP1 PUSH0 DUP1 DUP3 DUP3 SLOAD PUSH2 0x247 SWAP2 SWAP1 PUSH2 0x52C JUMP JUMPDEST SWAP3 POP POP DUP2 SWAP1 SSTORE POP POP JUMP JUMPDEST PUSH0 DUP1 PUSH0 PUSH1 0x1 SWAP1 POP PUSH0 PUSH1 0x1 SWAP1 POP JUMPDEST PUSH1 0x1 SLOAD DUP2 GT PUSH2 0x2C8 JUMPI PUSH2 0x270 DUP5 PUSH2 0x2EF JUMP JUMPDEST PUSH2 0x27A DUP7 DUP7 PUSH2 0x32D JUMP JUMPDEST DUP4 PUSH2 0x285 SWAP2 SWAP1 PUSH2 0x421 JUMP JUMPDEST PUSH2 0x28F SWAP2 SWAP1 PUSH2 0x4C4 JUMP JUMPDEST DUP4 PUSH2 0x29A SWAP2 SWAP1 PUSH2 0x52C JUMP JUMPDEST SWAP3 POP DUP2 PUSH2 0x2A6 SWAP1 PUSH2 0x56D JUMP JUMPDEST SWAP2 POP PUSH1 0x2 DUP5 PUSH2 0x2B5 SWAP2 SWAP1 PUSH2 0x52C JUMP JUMPDEST SWAP4 POP DUP1 PUSH2 0x2C1 SWAP1 PUSH2 0x5BC JUMP JUMPDEST SWAP1 POP PUSH2 0x25E JUMP JUMPDEST POP DUP2 PUSH0 DUP2 SWAP1 SSTORE POP POP POP POP POP JUMP JUMPDEST DUP1 PUSH0 DUP1 DUP3 DUP3 SLOAD PUSH2 0x2E5 SWAP2 SWAP1 PUSH2 0x4C4 JUMP JUMPDEST SWAP3 POP POP DUP2 SWAP1 SSTORE POP POP JUMP JUMPDEST PUSH0 DUP1 PUSH1 0x1 SWAP1 POP PUSH0 PUSH1 0x2 SWAP1 POP JUMPDEST DUP4 DUP2 SGT PUSH2 0x323 JUMPI DUP1 DUP3 PUSH2 0x30E SWAP2 SWAP1 PUSH2 0x421 JUMP JUMPDEST SWAP2 POP DUP1 DUP1 PUSH2 0x31B SWAP1 PUSH2 0x643 JUMP JUMPDEST SWAP2 POP POP PUSH2 0x2FB JUMP JUMPDEST POP DUP1 SWAP2 POP POP SWAP2 SWAP1 POP JUMP JUMPDEST PUSH0 DUP1 PUSH1 0x1 SWAP1 POP PUSH0 PUSH1 0x1 SWAP1 POP JUMPDEST DUP4 DUP2 SGT PUSH2 0x35F JUMPI DUP5 DUP3 PUSH2 0x34C SWAP2 SWAP1 PUSH2 0x421 JUMP JUMPDEST SWAP2 POP DUP1 PUSH2 0x358 SWAP1 PUSH2 0x643 JUMP JUMPDEST SWAP1 POP PUSH2 0x339 JUMP JUMPDEST POP DUP1 SWAP2 POP POP SWAP3 SWAP2 POP POP JUMP JUMPDEST PUSH0 DUP1 REVERT JUMPDEST PUSH0 DUP2 SWAP1 POP SWAP2 SWAP1 POP JUMP JUMPDEST PUSH2 0x380 DUP2 PUSH2 0x36E JUMP JUMPDEST DUP2 EQ PUSH2 0x38A JUMPI PUSH0 DUP1 REVERT JUMPDEST POP JUMP JUMPDEST PUSH0 DUP2 CALLDATALOAD SWAP1 POP PUSH2 0x39B DUP2 PUSH2 0x377 JUMP JUMPDEST SWAP3 SWAP2 POP POP JUMP JUMPDEST PUSH0 PUSH1 0x20 DUP3 DUP5 SUB SLT ISZERO PUSH2 0x3B6 JUMPI PUSH2 0x3B5 PUSH2 0x36A JUMP JUMPDEST JUMPDEST PUSH0 PUSH2 0x3C3 DUP5 DUP3 DUP6 ADD PUSH2 0x38D JUMP JUMPDEST SWAP2 POP POP SWAP3 SWAP2 POP POP JUMP JUMPDEST PUSH2 0x3D5 DUP2 PUSH2 0x36E JUMP JUMPDEST DUP3 MSTORE POP POP JUMP JUMPDEST PUSH0 PUSH1 0x20 DUP3 ADD SWAP1 POP PUSH2 0x3EE PUSH0 DUP4 ADD DUP5 PUSH2 0x3CC JUMP JUMPDEST SWAP3 SWAP2 POP POP JUMP JUMPDEST PUSH32 0x4E487B7100000000000000000000000000000000000000000000000000000000 PUSH0 MSTORE PUSH1 0x11 PUSH1 0x4 MSTORE PUSH1 0x24 PUSH0 REVERT JUMPDEST PUSH0 PUSH2 0x42B DUP3 PUSH2 0x36E JUMP JUMPDEST SWAP2 POP PUSH2 0x436 DUP4 PUSH2 0x36E JUMP JUMPDEST SWAP3 POP DUP3 DUP3 MUL PUSH2 0x444 DUP2 PUSH2 0x36E JUMP JUMPDEST SWAP2 POP PUSH32 0x8000000000000000000000000000000000000000000000000000000000000000 DUP5 EQ PUSH0 DUP5 SLT AND ISZERO PUSH2 0x47B JUMPI PUSH2 0x47A PUSH2 0x3F4 JUMP JUMPDEST JUMPDEST DUP3 DUP3 SDIV DUP5 EQ DUP4 ISZERO OR PUSH2 0x490 JUMPI PUSH2 0x48F PUSH2 0x3F4 JUMP JUMPDEST JUMPDEST POP SWAP3 SWAP2 POP POP JUMP JUMPDEST PUSH32 0x4E487B7100000000000000000000000000000000000000000000000000000000 PUSH0 MSTORE PUSH1 0x12 PUSH1 0x4 MSTORE PUSH1 0x24 PUSH0 REVERT JUMPDEST PUSH0 PUSH2 0x4CE DUP3 PUSH2 0x36E JUMP JUMPDEST SWAP2 POP PUSH2 0x4D9 DUP4 PUSH2 0x36E JUMP JUMPDEST SWAP3 POP DUP3 PUSH2 0x4E9 JUMPI PUSH2 0x4E8 PUSH2 0x497 JUMP JUMPDEST JUMPDEST PUSH1 0x1 PUSH0 SUB DUP4 EQ PUSH32 0x8000000000000000000000000000000000000000000000000000000000000000 DUP4 EQ AND ISZERO PUSH2 0x521 JUMPI PUSH2 0x520 PUSH2 0x3F4 JUMP JUMPDEST JUMPDEST DUP3 DUP3 SDIV SWAP1 POP SWAP3 SWAP2 POP POP JUMP JUMPDEST PUSH0 PUSH2 0x536 DUP3 PUSH2 0x36E JUMP JUMPDEST SWAP2 POP PUSH2 0x541 DUP4 PUSH2 0x36E JUMP JUMPDEST SWAP3 POP DUP3 DUP3 ADD SWAP1 POP DUP3 DUP2 SLT ISZERO PUSH0 DUP4 SLT AND DUP4 DUP3 SLT PUSH0 DUP5 SLT ISZERO AND OR ISZERO PUSH2 0x567 JUMPI PUSH2 0x566 PUSH2 0x3F4 JUMP JUMPDEST JUMPDEST SWAP3 SWAP2 POP POP JUMP JUMPDEST PUSH0 PUSH2 0x577 DUP3 PUSH2 0x36E JUMP JUMPDEST SWAP2 POP PUSH32 0x8000000000000000000000000000000000000000000000000000000000000000 DUP3 SUB PUSH2 0x5A9 JUMPI PUSH2 0x5A8 PUSH2 0x3F4 JUMP JUMPDEST JUMPDEST DUP2 PUSH0 SUB SWAP1 POP SWAP2 SWAP1 POP JUMP JUMPDEST PUSH0 DUP2 SWAP1 POP SWAP2 SWAP1 POP JUMP JUMPDEST PUSH0 PUSH2 0x5C6 DUP3 PUSH2 0x5B3 JUMP JUMPDEST SWAP2 POP PUSH32 0xFFFFFFFFFFFFFFFFFFFFFFFFFFFFFFFFFFFFFFFFFFFFFFFFFFFFFFFFFFFFFFFF DUP3 SUB PUSH2 0x5F8 JUMPI PUSH2 0x5F7 PUSH2 0x3F4 JUMP JUMPDEST JUMPDEST PUSH1 0x1 DUP3 ADD SWAP1 POP SWAP2 SWAP1 POP JUMP JUMPDEST PUSH0 PUSH2 0x60D DUP3 PUSH2 0x36E JUMP JUMPDEST SWAP2 POP PUSH2 0x618 DUP4 PUSH2 0x36E JUMP JUMPDEST SWAP3 POP DUP3 DUP3 SUB SWAP1 POP DUP2 DUP2 SLT PUSH0 DUP5 SLT AND DUP3 DUP3 SGT PUSH0 DUP6 SLT ISZERO AND OR ISZERO PUSH2 0x63D JUMPI PUSH2 0x63C PUSH2 0x3F4 JUMP JUMPDEST JUMPDEST SWAP3 SWAP2 POP POP JUMP JUMPDEST PUSH0 PUSH2 0x64D DUP3 PUSH2 0x36E JUMP JUMPDEST SWAP2 POP PUSH32 0x7FFFFFFFFFFFFFFFFFFFFFFFFFFFFFFFFFFFFFFFFFFFFFFFFFFFFFFFFFFFFFFF DUP3 SUB PUSH2 0x67F JUMPI PUSH2 0x67E PUSH2 0x3F4 JUMP JUMPDEST JUMPDEST PUSH1 0x1 DUP3 ADD SWAP1 POP SWAP2 SWAP1 POP JUMP INVALID LOG2 PUSH5 0x6970667358 0x22 SLT KECCAK256 LOG2 0xD SDIV SWAP6 RETURNDATACOPY 0xA7 0xD PUSH17 0x9567307C7F52B559AC019C7B80F5FF4D81 DUP4 0xBE PUSH26 0x6390467A64736F6C634300081A00330000000000000000000000 "
				},
				"gasEstimates": {
					"creation": {
						"codeDepositCost": "345600",
						"executionCost": "27489",
						"totalCost": "373089"
					},
					"external": {
						"add(int256)": "infinite",
						"cos(int256)": "infinite",
						"divide(int256)": "infinite",
						"get()": "2432",
						"multiply(int256)": "infinite",
						"result()": "2491",
						"sin(int256)": "infinite",
						"substract(int256)": "infinite"
					},
					"internal": {
						"factorial(int256)": "infinite",
						"power(int256,int256)": "infinite"
					}
				},
				"methodIdentifiers": {
					"add(int256)": "87db03b7",
					"cos(int256)": "9b666d7a",
					"divide(int256)": "aaa044dc",
					"get()": "6d4ce63c",
					"multiply(int256)": "1df4f144",
					"result()": "65372147",
					"sin(int256)": "16173f39",
					"substract(int256)": "4dd9fb71"
				}
			},
			"storageLayout": {
				"storage": [
					{
						"astId": 4,
						"contract": "contracts/calculator.sol:Hello",
						"label": "result",
						"offset": 0,
						"slot": "0",
						"type": "t_int256"
					},
					{
						"astId": 7,
						"contract": "contracts/calculator.sol:Hello",
						"label": "N",
						"offset": 0,
						"slot": "1",
						"type": "t_uint256"
					}
				],
				"types": {
					"t_int256": {
						"encoding": "inplace",
						"label": "int256",
						"numberOfBytes": "32"
					},
					"t_uint256": {
						"encoding": "inplace",
						"label": "uint256",
						"numberOfBytes": "32"
					}
				}
			},
			"userdoc": {
				"kind": "user",
				"methods": {},
				"version": 1
			}
		}
	}
}