{
	"data": {
		"bytecode": {
			"linkReferences": {},
			"object": "60806040525f8055620186a06001553480156018575f80fd5b506106c0806100265f395ff3fe608060405234801561000f575f80fd5b5060043610610086575f3560e01c80636d4ce63c116100595780636d4ce63c146100fc57806387db03b71461011a5780639b666d7a14610136578063aaa044dc1461015257610086565b806316173f391461008a5780631df4f144146100a65780634dd9fb71146100c257806365372147146100de575b5f80fd5b6100a4600480360381019061009f91906103a1565b61016e565b005b6100c060048036038101906100bb91906103a1565b6101f6565b005b6100dc60048036038101906100d791906103a1565b610210565b005b6100e661022a565b6040516100f391906103db565b60405180910390f35b61010461022f565b60405161011191906103db565b60405180910390f35b610134600480360381019061012f91906103a1565b610237565b005b610150600480360381019061014b91906103a1565b610251565b005b61016c600480360381019061016791906103a1565b6102d5565b005b5f600190505f80600190505f600190505b60015481116101e957610191846102ef565b61019b868661032d565b836101a69190610421565b6101b091906104c4565b836101bb919061052c565b9250816101c79061056d565b91506002846101d6919061052c565b9350806101e2906105bc565b905061017f565b50815f8190555050505050565b805f808282546102069190610421565b9250508190555050565b805f808282546102209190610603565b9250508190555050565b5f5481565b5f8054905090565b805f80828254610247919061052c565b9250508190555050565b5f805f600190505f600190505b60015481116102c857610270846102ef565b61027a868661032d565b836102859190610421565b61028f91906104c4565b8361029a919061052c565b9250816102a69061056d565b91506002846102b5919061052c565b9350806102c1906105bc565b905061025e565b50815f8190555050505050565b805f808282546102e591906104c4565b9250508190555050565b5f80600190505f600290505b83811361032357808261030e9190610421565b9150808061031b90610643565b9150506102fb565b5080915050919050565b5f80600190505f600190505b83811361035f57848261034c9190610421565b91508061035890610643565b9050610339565b508091505092915050565b5f80fd5b5f819050919050565b6103808161036e565b811461038a575f80fd5b50565b5f8135905061039b81610377565b92915050565b5f602082840312156103b6576103b561036a565b5b5f6103c38482850161038d565b91505092915050565b6103d58161036e565b82525050565b5f6020820190506103ee5f8301846103cc565b92915050565b7f4e487b71000000000000000000000000000000000000000000000000000000005f52601160045260245ffd5b5f61042b8261036e565b91506104368361036e565b92508282026104448161036e565b91507f800000000000000000000000000000000000000000000000000000000000000084145f8412161561047b5761047a6103f4565b5b82820584148315176104905761048f6103f4565b5b5092915050565b7f4e487b71000000000000000000000000000000000000000000000000000000005f52601260045260245ffd5b5f6104ce8261036e565b91506104d98361036e565b9250826104e9576104e8610497565b5b60015f0383147f800000000000000000000000000000000000000000000000000000000000000083141615610521576105206103f4565b5b828205905092915050565b5f6105368261036e565b91506105418361036e565b92508282019050828112155f8312168382125f841215161715610567576105666103f4565b5b92915050565b5f6105778261036e565b91507f800000000000000000000000000000000000000000000000000000000000000082036105a9576105a86103f4565b5b815f039050919050565b5f819050919050565b5f6105c6826105b3565b91507fffffffffffffffffffffffffffffffffffffffffffffffffffffffffffffffff82036105f8576105f76103f4565b5b600182019050919050565b5f61060d8261036e565b91506106188361036e565b925082820390508181125f8412168282135f85121516171561063d5761063c6103f4565b5b92915050565b5f61064d8261036e565b91507f7fffffffffffffffffffffffffffffffffffffffffffffffffffffffffffffff820361067f5761067e6103f4565b5b60018201905091905056fea2646970667358221220a20d05953ea70d709567307c7f52b559ac019c7b80f5ff4d8183be796390467a64736f6c634300081a0033",
			"opcodes": "PUSH1 0x80 PUSH1 0x40 MSTORE PUSH0 DUP1 SSTORE PUSH3 0x186A0 PUSH1 0x1 SSTORE CALLVALUE DUP1 ISZERO PUSH1 0x18 JUMPI PUSH0 DUP1 REVERT JUMPDEST POP PUSH2 0x6C0 DUP1 PUSH2 0x26 PUSH0 CODECOPY PUSH0 RETURN INVALID PUSH1 0x80 PUSH1 0x40 MSTORE CALLVALUE DUP1 ISZERO PUSH2 0xF JUMPI PUSH0 DUP1 REVERT JUMPDEST POP PUSH1 0x4 CALLDATASIZE LT PUSH2 0x86 JUMPI PUSH0 CALLDATALOAD PUSH1 0xE0 SHR DUP1 PUSH4 0x6D4CE63C GT PUSH2 0x59 JUMPI DUP1 PUSH4 0x6D4CE63C EQ PUSH2 0xFC JUMPI DUP1 PUSH4 0x87DB03B7 EQ PUSH2 0x11A JUMPI DUP1 PUSH4 0x9B666D7A EQ PUSH2 0x136 JUMPI DUP1 PUSH4 0xAAA044DC EQ PUSH2 0x152 JUMPI PUSH2 0x86 JUMP JUMPDEST DUP1 PUSH4 0x16173F39 EQ PUSH2 0x8A JUMPI DUP1 PUSH4 0x1DF4F144 EQ PUSH2 0xA6 JUMPI DUP1 PUSH4 0x4DD9FB71 EQ PUSH2 0xC2 JUMPI DUP1 PUSH4 0x65372147 EQ PUSH2 0xDE JUMPI JUMPDEST PUSH0 DUP1 REVERT JUMPDEST PUSH2 0xA4 PUSH1 0x4 DUP1 CALLDATASIZE SUB DUP2 ADD SWAP1 PUSH2 0x9F SWAP2 SWAP1 PUSH2 0x3A1 JUMP JUMPDEST PUSH2 0x16E JUMP JUMPDEST STOP JUMPDEST PUSH2 0xC0 PUSH1 0x4 DUP1 CALLDATASIZE SUB DUP2 ADD SWAP1 PUSH2 0xBB SWAP2 SWAP1 PUSH2 0x3A1 JUMP JUMPDEST PUSH2 0x1F6 JUMP JUMPDEST STOP JUMPDEST PUSH2 0xDC PUSH1 0x4 DUP1 CALLDATASIZE SUB DUP2 ADD SWAP1 PUSH2 0xD7 SWAP2 SWAP1 PUSH2 0x3A1 JUMP JUMPDEST PUSH2 0x210 JUMP JUMPDEST STOP JUMPDEST PUSH2 0xE6 PUSH2 0x22A JUMP JUMPDEST PUSH1 0x40 MLOAD PUSH2 0xF3 SWAP2 SWAP1 PUSH2 0x3DB JUMP JUMPDEST PUSH1 0x40 MLOAD DUP1 SWAP2 SUB SWAP1 RETURN JUMPDEST PUSH2 0x104 PUSH2 0x22F JUMP JUMPDEST PUSH1 0x40 MLOAD PUSH2 0x111 SWAP2 SWAP1 PUSH2 0x3DB JUMP JUMPDEST PUSH1 0x40 MLOAD DUP1 SWAP2 SUB SWAP1 RETURN JUMPDEST PUSH2 0x134 PUSH1 0x4 DUP1 CALLDATASIZE SUB DUP2 ADD SWAP1 PUSH2 0x12F SWAP2 SWAP1 PUSH2 0x3A1 JUMP JUMPDEST PUSH2 0x237 JUMP JUMPDEST STOP JUMPDEST PUSH2 0x150 PUSH1 0x4 DUP1 CALLDATASIZE SUB DUP2 ADD SWAP1 PUSH2 0x14B SWAP2 SWAP1 PUSH2 0x3A1 JUMP JUMPDEST PUSH2 0x251 JUMP JUMPDEST STOP JUMPDEST PUSH2 0x16C PUSH1 0x4 DUP1 CALLDATASIZE SUB DUP2 ADD SWAP1 PUSH2 0x167 SWAP2 SWAP1 PUSH2 0x3A1 JUMP JUMPDEST PUSH2 0x2D5 JUMP JUMPDEST STOP JUMPDEST PUSH0 PUSH1 0x1 SWAP1 POP PUSH0 DUP1 PUSH1 0x1 SWAP1 POP PUSH0 PUSH1 0x1 SWAP1 POP JUMPDEST PUSH1 0x1 SLOAD DUP2 GT PUSH2 0x1E9 JUMPI PUSH2 0x191 DUP5 PUSH2 0x2EF JUMP JUMPDEST PUSH2 0x19B DUP7 DUP7 PUSH2 0x32D JUMP JUMPDEST DUP4 PUSH2 0x1A6 SWAP2 SWAP1 PUSH2 0x421 JUMP JUMPDEST PUSH2 0x1B0 SWAP2 SWAP1 PUSH2 0x4C4 JUMP JUMPDEST DUP4 PUSH2 0x1BB SWAP2 SWAP1 PUSH2 0x52C JUMP JUMPDEST SWAP3 POP DUP2 PUSH2 0x1C7 SWAP1 PUSH2 0x56D JUMP JUMPDEST SWAP2 POP PUSH1 0x2 DUP5 PUSH2 0x1D6 SWAP2 SWAP1 PUSH2 0x52C JUMP JUMPDEST SWAP4 POP DUP1 PUSH2 0x1E2 SWAP1 PUSH2 0x5BC JUMP JUMPDEST SWAP1 POP PUSH2 0x17F JUMP JUMPDEST POP DUP2 PUSH0 DUP2 SWAP1 SSTORE POP POP POP POP POP JUMP JUMPDEST DUP1 PUSH0 DUP1 DUP3 DUP3 SLOAD PUSH2 0x206 SWAP2 SWAP1 PUSH2 0x421 JUMP JUMPDEST SWAP3 POP POP DUP2 SWAP1 SSTORE POP POP JUMP JUMPDEST DUP1 PUSH0 DUP1 DUP3 DUP3 SLOAD PUSH2 0x220 SWAP2 SWAP1 PUSH2 0x603 JUMP JUMPDEST SWAP3 POP POP DUP2 SWAP1 SSTORE POP POP JUMP JUMPDEST PUSH0 SLOAD DUP2 JUMP JUMPDEST PUSH0 DUP1 SLOAD SWAP1 POP SWAP1 JUMP JUMPDEST DUP1 PUSH0 DUP1 DUP3 DUP3 SLOAD PUSH2 0x247 SWAP2 SWAP1 PUSH2 0x52C JUMP JUMPDEST SWAP3 POP POP DUP2 SWAP1 SSTORE POP POP JUMP JUMPDEST PUSH0 DUP1 PUSH0 PUSH1 0x1 SWAP1 POP PUSH0 PUSH1 0x1 SWAP1 POP JUMPDEST PUSH1 0x1 SLOAD DUP2 GT PUSH2 0x2C8 JUMPI PUSH2 0x270 DUP5 PUSH2 0x2EF JUMP JUMPDEST PUSH2 0x27A DUP7 DUP7 PUSH2 0x32D JUMP JUMPDEST DUP4 PUSH2 0x285 SWAP2 SWAP1 PUSH2 0x421 JUMP JUMPDEST PUSH2 0x28F SWAP2 SWAP1 PUSH2 0x4C4 JUMP JUMPDEST DUP4 PUSH2 0x29A SWAP2 SWAP1 PUSH2 0x52C JUMP JUMPDEST SWAP3 POP DUP2 PUSH2 0x2A6 SWAP1 PUSH2 0x56D JUMP JUMPDEST SWAP2 POP PUSH1 0x2 DUP5 PUSH2 0x2B5 SWAP2 SWAP1 PUSH2 0x52C JUMP JUMPDEST SWAP4 POP DUP1 PUSH2 0x2C1 SWAP1 PUSH2 0x5BC JUMP JUMPDEST SWAP1 POP PUSH2 0x25E JUMP JUMPDEST POP DUP2 PUSH0 DUP2 SWAP1 SSTORE POP POP POP POP POP JUMP JUMPDEST DUP1 PUSH0 DUP1 DUP3 DUP3 SLOAD PUSH2 0x2E5 SWAP2 SWAP1 PUSH2 0x4C4 JUMP JUMPDEST SWAP3 POP POP DUP2 SWAP1 SSTORE POP POP JUMP JUMPDEST PUSH0 DUP1 PUSH1 0x1 SWAP1 POP PUSH0 PUSH1 0x2 SWAP1 POP JUMPDEST DUP4 DUP2 SGT PUSH2 0x323 JUMPI DUP1 DUP3 PUSH2 0x30E SWAP2 SWAP1 PUSH2 0x421 JUMP JUMPDEST SWAP2 POP DUP1 DUP1 PUSH2 0x31B SWAP1 PUSH2 0x643 JUMP JUMPDEST SWAP2 POP POP PUSH2 0x2FB JUMP JUMPDEST POP DUP1 SWAP2 POP POP SWAP2 SWAP1 POP JUMP JUMPDEST PUSH0 DUP1 PUSH1 0x1 SWAP1 POP PUSH0 PUSH1 0x1 SWAP1 POP JUMPDEST DUP4 DUP2 SGT PUSH2 0x35F JUMPI DUP5 DUP3 PUSH2 0x34C SWAP2 SWAP1 PUSH2 0x421 JUMP JUMPDEST SWAP2 POP DUP1 PUSH2 0x358 SWAP1 PUSH2 0x643 JUMP JUMPDEST SWAP1 POP PUSH2 0x339 JUMP JUMPDEST POP DUP1 SWAP2 POP POP SWAP3 SWAP2 POP POP JUMP JUMPDEST PUSH0 DUP1 REVERT JUMPDEST PUSH0 DUP2 SWAP1 POP SWAP2 SWAP1 POP JUMP JUMPDEST PUSH2 0x380 DUP2 PUSH2 0x36E JUMP JUMPDEST DUP2 EQ PUSH2 0x38A JUMPI PUSH0 DUP1 REVERT JUMPDEST POP JUMP JUMPDEST PUSH0 DUP2 CALLDATALOAD SWAP1 POP PUSH2 0x39B DUP2 PUSH2 0x377 JUMP JUMPDEST SWAP3 SWAP2 POP POP JUMP JUMPDEST PUSH0 PUSH1 0x20 DUP3 DUP5 SUB SLT ISZERO PUSH2 0x3B6 JUMPI PUSH2 0x3B5 PUSH2 0x36A JUMP JUMPDEST JUMPDEST PUSH0 PUSH2 0x3C3 DUP5 DUP3 DUP6 ADD PUSH2 0x38D JUMP JUMPDEST SWAP2 POP POP SWAP3 SWAP2 POP POP JUMP JUMPDEST PUSH2 0x3D5 DUP2 PUSH2 0x36E JUMP JUMPDEST DUP3 MSTORE POP POP JUMP JUMPDEST PUSH0 PUSH1 0x20 DUP3 ADD SWAP1 POP PUSH2 0x3EE PUSH0 DUP4 ADD DUP5 PUSH2 0x3CC JUMP JUMPDEST SWAP3 SWAP2 POP POP JUMP JUMPDEST PUSH32 0x4E487B7100000000000000000000000000000000000000000000000000000000 PUSH0 MSTORE PUSH1 0x11 PUSH1 0x4 MSTORE PUSH1 0x24 PUSH0 REVERT JUMPDEST PUSH0 PUSH2 0x42B DUP3 PUSH2 0x36E JUMP JUMPDEST SWAP2 POP PUSH2 0x436 DUP4 PUSH2 0x36E JUMP JUMPDEST SWAP3 POP DUP3 DUP3 MUL PUSH2 0x444 DUP2 PUSH2 0x36E JUMP JUMPDEST SWAP2 POP PUSH32 0x8000000000000000000000000000000000000000000000000000000000000000 DUP5 EQ PUSH0 DUP5 SLT AND ISZERO PUSH2 0x47B JUMPI PUSH2 0x47A PUSH2 0x3F4 JUMP JUMPDEST JUMPDEST DUP3 DUP3 SDIV DUP5 EQ DUP4 ISZERO OR PUSH2 0x490 JUMPI PUSH2 0x48F PUSH2 0x3F4 JUMP JUMPDEST JUMPDEST POP SWAP3 SWAP2 POP POP JUMP JUMPDEST PUSH32 0x4E487B7100000000000000000000000000000000000000000000000000000000 PUSH0 MSTORE PUSH1 0x12 PUSH1 0x4 MSTORE PUSH1 0x24 PUSH0 REVERT JUMPDEST PUSH0 PUSH2 0x4CE DUP3 PUSH2 0x36E JUMP JUMPDEST SWAP2 POP PUSH2 0x4D9 DUP4 PUSH2 0x36E JUMP JUMPDEST SWAP3 POP DUP3 PUSH2 0x4E9 JUMPI PUSH2 0x4E8 PUSH2 0x497 JUMP JUMPDEST JUMPDEST PUSH1 0x1 PUSH0 SUB DUP4 EQ PUSH32 0x8000000000000000000000000000000000000000000000000000000000000000 DUP4 EQ AND ISZERO PUSH2 0x521 JUMPI PUSH2 0x520 PUSH2 0x3F4 JUMP JUMPDEST JUMPDEST DUP3 DUP3 SDIV SWAP1 POP SWAP3 SWAP2 POP POP JUMP JUMPDEST PUSH0 PUSH2 0x536 DUP3 PUSH2 0x36E JUMP JUMPDEST SWAP2 POP PUSH2 0x541 DUP4 PUSH2 0x36E JUMP JUMPDEST SWAP3 POP DUP3 DUP3 ADD SWAP1 POP DUP3 DUP2 SLT ISZERO PUSH0 DUP4 SLT AND DUP4 DUP3 SLT PUSH0 DUP5 SLT ISZERO AND OR ISZERO PUSH2 0x567 JUMPI PUSH2 0x566 PUSH2 0x3F4 JUMP JUMPDEST JUMPDEST SWAP3 SWAP2 POP POP JUMP JUMPDEST PUSH0 PUSH2 0x577 DUP3 PUSH2 0x36E JUMP JUMPDEST SWAP2 POP PUSH32 0x8000000000000000000000000000000000000000000000000000000000000000 DUP3 SUB PUSH2 0x5A9 JUMPI PUSH2 0x5A8 PUSH2 0x3F4 JUMP JUMPDEST JUMPDEST DUP2 PUSH0 SUB SWAP1 POP SWAP2 SWAP1 POP JUMP JUMPDEST PUSH0 DUP2 SWAP1 POP SWAP2 SWAP1 POP JUMP JUMPDEST PUSH0 PUSH2 0x5C6 DUP3 PUSH2 0x5B3 JUMP JUMPDEST SWAP2 POP PUSH32 0xFFFFFFFFFFFFFFFFFFFFFFFFFFFFFFFFFFFFFFFFFFFFFFFFFFFFFFFFFFFFFFFF DUP3 SUB PUSH2 0x5F8 JUMPI PUSH2 0x5F7 PUSH2 0x3F4 JUMP JUMPDEST JUMPDEST PUSH1 0x1 DUP3 ADD SWAP1 POP SWAP2 SWAP1 POP JUMP JUMPDEST PUSH0 PUSH2 0x60D DUP3 PUSH2 0x36E JUMP JUMPDEST SWAP2 POP PUSH2 0x618 DUP4 PUSH2 0x36E JUMP JUMPDEST SWAP3 POP DUP3 DUP3 SUB SWAP1 POP DUP2 DUP2 SLT PUSH0 DUP5 SLT AND DUP3 DUP3 SGT PUSH0 DUP6 SLT ISZERO AND OR ISZERO PUSH2 0x63D JUMPI PUSH2 0x63C PUSH2 0x3F4 JUMP JUMPDEST JUMPDEST SWAP3 SWAP2 POP POP JUMP JUMPDEST PUSH0 PUSH2 0x64D DUP3 PUSH2 0x36E JUMP JUMPDEST SWAP2 POP PUSH32 0x7FFFFFFFFFFFFFFFFFFFFFFFFFFFFFFFFFFFFFFFFFFFFFFFFFFFFFFFFFFFFFFF DUP3 SUB PUSH2 0x67F JUMPI PUSH2 0x67E PUSH2 0x3F4 JUMP JUMPDEST JUMPDEST PUSH1 0x1 DUP3 ADD SWAP1 POP SWAP2 SWAP1 POP JUMP INVALID LOG2 PUSH5 0x6970667358 0x22 SLT KECCAK256 LOG2 0xD SDIV SWAP6 RETURNDATACOPY 0xA7 0xD PUSH17 0x9567307C7F52B559AC019C7B80F5FF4D81 DUP4 0xBE PUSH26 0x6390467A64736F6C634300081A00330000000000000000000000 "
		},
		"gasEstimates": {
			"creation": {
				"codeDepositCost": "345600",
				"executionCost": "27489",
				"totalCost": "373089"
			},
			"external": {
				"add(int256)": "infinite",
				"cos(int256)": "infinite",
				"divide(int256)": "infinite",
				"get()": "2432",
				"multiply(int256)": "infinite",
				"result()": "2491",
				"sin(int256)": "infinite",
				"substract(int256)": "infinite"
			},
			"internal": {
				"factorial(int256)": "infinite",
				"power(int256,int256)": "infinite"
			}
		},
		"methodIdentifiers": {
			"add(int256)": "87db03b7",
			"cos(int256)": "9b666d7a",
			"divide(int256)": "aaa044dc",
			"get()": "6d4ce63c",
			"multiply(int256)": "1df4f144",
			"result()": "65372147",
			"sin(int256)": "16173f39",
			"substract(int256)": "4dd9fb71"
		}
	},
	"abi": [
		{
			"inputs": [
				{
					"internalType": "int256",
					"name": "n",
					"type": "int256"
				}
			],
			"name": "add",
			"outputs": [],
			"stateMutability": "nonpayable",
			"type": "function"
		},
		{
			"inputs": [
				{
					"internalType": "int256",
					"name": "n",
					"type": "int256"
				}
			],
			"name": "cos",
			"outputs": [],
			"stateMutability": "nonpayable",
			"type": "function"
		},
		{
			"inputs": [
				{
					"internalType": "int256",
					"name": "n",
					"type": "int256"
				}
			],
			"name": "divide",
			"outputs": [],
			"stateMutability": "nonpayable",
			"type": "function"
		},
		{
			"inputs": [],
			"name": "get",
			"outputs": [
				{
					"internalType": "int256",
					"name": "",
					"type": "int256"
				}
			],
			"stateMutability": "view",
			"type": "function"
		},
		{
			"inputs": [
				{
					"internalType": "int256",
					"name": "n",
					"type": "int256"
				}
			],
			"name": "multiply",
			"outputs": [],
			"stateMutability": "nonpayable",
			"type": "function"
		},
		{
			"inputs": [],
			"name": "result",
			"outputs": [
				{
					"internalType": "int256",
					"name": "",
					"type": "int256"
				}
			],
			"stateMutability": "view",
			"type": "function"
		},
		{
			"inputs": [
				{
					"internalType": "int256",
					"name": "n",
					"type": "int256"
				}
			],
			"name": "sin",
			"outputs": [],
			"stateMutability": "nonpayable",
			"type": "function"
		},
		{
			"inputs": [
				{
					"internalType": "int256",
					"name": "n",
					"type": "int256"
				}
			],
			"name": "substract",
			"outputs": [],
			"stateMutability": "nonpayable",
			"type": "function"
		}
	]
}